:020000040800F2
:1004400080B483B000AF0823FB71164BDB6803F464
:100450008033B3F5803F02D10123FB711CE0114BC7
:10046000DB6803F01003002B02D00523FB7113E0BF
:100470000C4BDB6803F0EF03002B02D00623FB716B
:100480000AE0084BDB6803F00203002B02D00723CD
:10049000FB7101E00823FB71FB7918460C37BD4660
:1004A00080BC7047003C024080B582B000AF08239A
:1004B000FB71FFF7C5FF0346FB7103E0FFF7C0FFC9
:1004C0000346FB71FB79DBB2012BF7D0FB79DBB282
:1004D00018460837BD4680BD80B400AF164B0122D8
:1004E0001A60154B00229A60134B00225A60124B7F
:1004F0000022DA60104A104B1B6843F4102313608B
:100500000D4B1B6803F40033002BF9D00A4B01227A
:100510009A60094B9B6803F00403002BF9D0064A4C
:10052000054B1B6823F001031360044B4FF000627E
:100530009A60BD4680BC70470038024000ED00E084
:1005400080B487B000AF00233B6100237B610223AE
:10055000FB600023BB6002237B60304B9B6803F091
:100560000C033B613B69042B07D0082B09D0002BFF
:100570003DD12B4B2B4A1A603CE0294B2A4A1A608A
:1005800038E0264B5B689B0D03F00103BB60234BF7
:100590005B6803F03F037B60BB68002B0CD0224AF2
:1005A0007B68B2FBF3F31D4A52689209C2F308025A
:1005B00002FB03F37B610BE01A4A7B68B2FBF3F3A7
:1005C000164A52689209C2F3080202FB03F37B61E8
:1005D000124B5B681B0C03F0030301335B00FB60F1
:1005E0007A69FB68B2FBF3F30D4A136002E00C4B2F
:1005F0000C4A1A60094B9B681B0903F00F030B4A56
:10060000D35C3B61064B1A683B6922FA03F3044A48
:1006100013601C37BD4680BC704700BF00380240E5
:10062000240000200024F40000127A004C4A000844
:1006300080B485B000AFF860B9607A60FB686FF095
:10064000FF021A61FB684FF47F429A82FB687A6866
:100650001A60FB68BA68DA60FB6800229A60FB687F
:1006600000225A60FB6818461437BD4680BC7047AC
:1006700080B485B000AF78600B46FB707B685B6828
:10068000FB607B689B68BB60FB685A1CBB689A4236
:1006900001D100231DE0BB68002B07D17B681B68DC
:1006A0005A1EFB689A4201D1002312E07B68DA6887
:1006B000FB68591CF9601344FA781A707B681A6851
:1006C000FB689A4201D9FB6800E000237A68536016
:1006D000012318461437BD4680BC704780B487B0EC
:1006E00000AF78607B689B687B617B685B683B617F
:1006F0007A693B699A4202D17B689B8A13E07B68E6
:10070000DA687B69591C796113441B78FB737B6839
:100710001A687B699A4201D97B6900E000237A68F4
:100720009360FB7B9BB218461C37BD4680BC70476C
:1007300080B485B000AF78607B689B68FB607B68A5
:100740005B68BB60BB680133BB60BA68FB689A42F8
:100750000CBF01230023DBB2002B01D001230AE0F0
:10076000FB68002B06D17B681A68BB689A4201D8E7
:10077000012300E0002318461437BD4680BC7047B3
:1007800080B485B000AF786039603023FB722323DA
:10079000BB727B68FB6002E0FB680133FB60FB68B7
:1007A00093F90030002BF7D13BE0FB68013BFB6085
:1007B000FB6893F9003097F90B209A4206D0FB684A
:1007C00093F9003097F90A209A422AD139681C4BD4
:1007D000A3FB0123DA0813469B0013445B00CA1AEB
:1007E00013467B723B68164AA2FB0323DB083B607F
:1007F0007B7A002B0DD13B68002B0AD1FB6893F963
:10080000003097F90A209A420AD1FB6820221A7018
:1008100007E07B7A3033DBB25AB2FB681A7000E033
:1008200000BFFA687B689A42BFD83B68002B0CBFB8
:1008300001230023DBB218461437BD4680BC704745
:10084000CDCCCCCC80B487B000AFF860B960134693
:10085000FB71BB685A1CBA6093F90030FB75FB7DD5
:10086000002B0AD1FB79002B05D0FB685A1CFA60DB
:1008700097F917201A70FB6806E0FB685A1CFA60AB
:1008800097F917201A70E4E718461C37BD4680BC5C
:10089000704780B584B002AF786078680023009319
:1008A00000230022012103F08EF87B6803F10C0085
:1008B0000323009300230022012103F084F87B68C6
:1008C00003F118000023009300230022012103F00C
:1008D0007AF87B6803F124000023009300230022B0
:1008E000012103F070F87B6803F1300002230093CC
:1008F00001230122002103F066F87B6803F13C002C
:100900000223009301230122002103F05CF87B689D
:1009100003F148000223009301230122002103F088
:1009200052F87B6803F15400022300930123012253
:10093000002103F048F87B6803F160000223009374
:1009400001230122002103F03EF87B6803F16C00D3
:100950000223009301230122002103F034F87B6875
:1009600003F178000223009301230122002103F008
:100970002AF80837BD4680BD80B584B000AFF86066
:10098000B9607A603B60FB68BA681A60FB687A6895
:100990005A60FB683A689A60FB681B68184601F069
:1009A000CBFC0246FB68DA60FB6800221A74103741
:1009B000BD4680BD80B584B000AFF860B9607A6094
:1009C0003B60FB68BA685A60FB685B68184601F0D8
:1009D000B3FC0246FB68DA60FB683A689A60FB6821
:1009E0007A681A61FB68BA695A61FB685869FB68E2
:1009F0005968FB681A69FB689B68FFF7BDFFFB68D5
:100A000000221A701037BD4680BD000080B582B04C
:100A100000AF78607B6808222749184602F0F0FE94
:100A20007B680C3309222449184602F0E9FE7B68F2
:100A300018330A222049184602F0E2FE7B6824336C
:100A40000B221D49184602F0DBFE7B68303306227C
:100A50001A49184602F0D4FE7B683C330522174938
:100A6000184602F0CDFE7B68483308221349184629
:100A700002F0C6FE7B6854330C220F49184602F080
:100A8000BFFE7B68603309220C49184602F0B8FEAD
:100A90007B686C3308220A49184602F0B1FE7B6875
:100AA000783309220649184602F0AAFE7B681846E8
:100AB0000837BD4680BD00BF00000240000802406C
:100AC0000004024080B483B000AF78607B680022ED
:100AD0005A747B6800225A827B6800221A757B68F0
:100AE00018460C37BD4680BC7047000080B500AF8B
:100AF000014801F07BFB80BD5404002080B584B028
:100B000002AF03F0F9F84748FFF7C3FE464800F08C
:100B100063F902F04DFD7860444B1968444B009333
:100B2000444B454A7868FFF745FF7B689B68184649
:100B300001F0BDFB7B689B68184601F0C6FB7B6833
:100B40009B680021184602F0FDFC02F047FB0346BB
:100B500083F00103DBB2002B07D07B689868374B2A
:100B60000022012103F00DFDFEE77B689B683449FC
:100B7000184600F0D5FD4FF47A7003F093F97B68C6
:100B80009B680121184602F0DDFC4FF47A7003F0F7
:100B900089F97B689B682B49184600F0C1FD4FF42A
:100BA0007A7003F07FF97B689B6800220121184668
:100BB00003F0D1FC4FF47A7003F074F97B689B6802
:100BC0002149184600F0ACFD7B689B681F49184618
:100BD00000F0A6FD7B6898681D4B0022012103F000
:100BE000D0FC4FF47A7003F05DF97B689868194B7C
:100BF0000022002103F0C5FC7B689868164B002298
:100C0000012103F0BEFC4FF47A7003F04BF97B68CE
:100C10005B690021184603F00FFE03F038F900F07D
:100C2000FBFCFAE7D0030020B404002020000020E1
:100C3000E4040020B8040020540400205C4A0008AA
:100C4000704A0008784A0008804A0008884A00086C
:100C50009C4A0008B04A0008C44A000880B586B023
:100C600004AF786039607B68012B4DD13B684FF64B
:100C7000FF72934248D1264B184684231A4600211E
:100C800003F0DBFE2248FFF7C1FE224B0393224B09
:100C90000293224B0193224B0093224B224A234979
:100CA000234801F04FFA2349234801F0A0F82349D3
:100CB000234801F09CF82349234801F098F814498F
:100CC000224801F094F8224801F0CAFA204921484C
:100CD00001F0D0FA1D4B00931B4B194A16491E48D0
:100CE00001F001FB1D4B1A46002313605360936013
:100CF000D360136153611948FFF7E4FE0A23184AD1
:100D00000221184800F0B6FC0837BD4680BD00BF80
:100D1000D003002030040020480400203C040020C0
:100D200024040020180400200C04002000040020EB
:100D300054040020E8030020A4040020F403002051
:100D4000A8040020DC030020AC040020B004002034
:100D5000B4040020B8040020BC040020E4040020F7
:100D6000ED0A0008FC04002080B500AF4FF6FF71CB
:100D70000120FFF773FF80BD80B584B000AF7860BD
:100D80000B46FB701346BB70FB78002B01D0002391
:100D900000E040233B73BB787B7307F10C03022216
:100DA00019463E2003F0AAFA0346FB73FB7B184664
:100DB0001037BD4680BD80B582B000AF78600B466D
:100DC000FB70FB781A4601217868FFF7D5FF0346D0
:100DD00018460837BD4680BD80B582B000AF786048
:100DE000002003F087F80A21786802F044FB012014
:100DF00003F080F80A21786802F03DFB382178681A
:100E0000FFF7D9FF4FF49671786802F034FB39216F
:100E10007868FFF7D0FF4FF49671786802F02BFBEB
:100E200014217868FFF7C7FF6421786802F023FB7C
:100E300079217868FFF7BFFF6421786802F01BFB17
:100E400050217868FFF7B7FF6421786802F013FB40
:100E50006C217868FFF7AFFF6421786802F00BFB24
:100E60000C217868FFF7A7FF6421786802F003FB84
:100E700001217868FFF79FFF6421786802F0FBFA90
:100E800038217868FFF797FF6421786802F0F3FA59
:100E90000837BD4680BD80B58AB000AF7860396044
:100EA000142387F8273040233B740123FB73FB7B1B
:100EB000122B16DC3B685A1C3A601B7887F82630E8
:100EC000FB7B97F8262007F128010B4403F8182C28
:100ED00097F92630002B04D0FB7B0133DBB2FB7388
:100EE000E5E7002387F82330FB7B9AB207F1100374
:100EF00019463E2003F002FA034687F8253097F89A
:100F0000253018462837BD4680BD80B582B000AF79
:100F100078600B46FB701346BB70FB78012B08D141
:100F2000BB7863F03F03DBB219467868FFF743FFF5
:100F300007E0BB7863F07F03DBB219467868FFF700
:100F40003AFF012318460837BD4680BD80B584B0FE
:100F500000AF786001217868FFF72DFF0346FB732F
:100F6000FB7B18461037BD4680BD80B582B000AF10
:100F700078600E217868FFF71EFF012318460837B6
:100F8000BD4680BD80B584B000AF78600B46FB7075
:100F90000023FB600823FB72FB78002B02D10023A7
:100FA000FB6010E0FB78012B03D14FF48073FB60F2
:100FB00009E0FB78022B03D14FF40073FB6002E0E1
:100FC0004FF44073FB60FFF76FFA0346FB72FB7A46
:100FD000082B2FD11A4A1A4B1B6923F44073136153
:100FE0001749174B1A69FB6813430B61144A144BDA
:100FF0001B6923F0F80313611149114B1A697B68CF
:10100000134343F002030B610D4A0D4B1B6943F47C
:1010100080331361FFF748FA0346FB72084A084B16
:101020001B6923F002031361054A054B1B6923F07A
:10103000F8031361FB7A18461037BD4680BD00BF28
:10104000003C024080B584B000AF78600B467B80E6
:101050000823FB73FFF728FA0346FB73FB7B082B7F
:101060001ED1124A114B1B6923F4407313610F4ABE
:101070000E4B1B6943F4807313610C4A0B4B1B69C5
:1010800043F0010313617B687A881A80FFF70CFA3A
:101090000346FB73054A054B1B6923F001031361EB
:1010A000FB7B18461037BD4680BD00BF003C0240A8
:1010B00080B582B000AF78607B681B6A184602F08A
:1010C0008BF97B685B6A184602F086F97B689B693E
:1010D000184602F075F97B68DB69184602F070F972
:1010E000002318460837BD4680BD80B582B000AFEA
:1010F00078607B6801221A707868FFF7D9FF0123B6
:1011000018460837BD4680BD80B582B000AF786014
:101110007B6801225A707868FFF7CAFF01231846DE
:101120000837BD4680BD000080B500AF014802F021
:101130001EF980BD9803002080B582B000AF7860B2
:10114000786800F0D3F90837BD4680BD90B585B00A
:1011500000AF7860786800F071F9786800F0C6F93F
:101160007B681B78042B00F2B88001A252F823F0B0
:1011700085110008A111000827120008DB120008E1
:10118000B3120008786802F0D2F80346002B00F092
:101190009D8042F210720121786800F0A3F89CE073
:1011A0004F4B1B68184603F03BFB0446022003F03C
:1011B0001DFA03469C42ACBF01230023DBB2002B87
:1011C00004D000220221786800F08CF8786802F0E0
:1011D000BEF80346002B7BD0414B1B685B6A184668
:1011E00002F006F90346002B0ED03D4B1B685B6AEC
:1011F000184602F0F1F8062003F0F8F90346194604
:10120000786802F088F863E0354B1B685B6A184623
:1012100002F0D6F8052003F0E9F90346194678688C
:1012200002F079F859E02E4B1B68184603F0F8FAE3
:10123000F860032003F0DAF90246FB689B1ABB60F2
:10124000022003F0D3F90246BB689A42B4BF0123DF
:101250000023DBB2002B40D1786802F078F8034617
:10126000002B37D01E4B1B685B6A184602F0C0F893
:101270000346002B0ED01A4B1B685B6A184602F01F
:10128000ABF8092003F0B2F903461946786802F07A
:1012900042F81FE0124B1B685B6A184602F090F898
:1012A000082003F0A3F903461946786802F033F8E2
:1012B00013E0786802F03BF80346002B0CD042F2B2
:1012C00010720021786800F00DF806E000BF04E01D
:1012D00000BF02E000BF00E000BF1437BD4690BD74
:1012E0002000002080B584B000AFF8600B467A6023
:1012F000FB72FB68FA7A1A70FB687A685A60FB7AAC
:10130000052B00F2908001A252F823F0251300086B
:101310006713000899130008B3130008311400087C
:10132000E5130008444B1B681B6A184602F054F88A
:10133000414B1B689B69184602F04EF83E4B1B68F8
:10134000DB69184602F048F83B4B1B685B6A18469D
:1013500002F042F80021F86801F0D1FF0021F8689E
:1013600001F0D9FF64E0344B1B681B6A184602F099
:1013700027F8314B1B689B69184602F02DF82E4B5D
:101380001B68DB69184602F027F82B4B1B685B6A69
:10139000184602F021F84BE0274B1B681B6A1846E1
:1013A00002F01AF8244B1B685B6A184602F014F826
:1013B0003EE0214B1B681B6A184602F00DF81E4BDD
:1013C0001B685B6A184602F007F81B4B1B689B6999
:1013D000184601F0F5FF184B1B68DB69184601F051
:1013E000EFFF25E0144B1B681B6A184601F0F4FF61
:1013F000114B1B689B69184601F0EEFF0E4B1B68F2
:10140000DB69184601F0E8FF0B4B1B685B6A184666
:1014100001F0E2FF0021F86801F071FF0021F86897
:1014200001F079FF04E0044B1B681846FFF740FE0B
:101430001037BD4680BD00BF2000002080B584B0BD
:1014400000AF7860284B1B68184603F0E9F9F86094
:10145000042003F0CBF803467B817A89FB689A422B
:1014600006DC214B1B689B69184601F0A9FF10E0C0
:10147000032003F0BBF80246FB681344FB607A8943
:10148000FB689A4205DD184B1B689B69184601F002
:10149000A3FF154B1B68184601F0B8FFF8600E203B
:1014A00003F0A4F803467B817A89FB689A4206DC44
:1014B0000D4B1B68DB69184601F082FF10E00F201E
:1014C00003F094F80246FB681344FB607A89FB68DA
:1014D0009A4205DD044B1B68DB69184601F07CFF6E
:1014E0001037BD4680BD00BF2000002080B586B00B
:1014F00000AF7860174B1B68184603F091F97861CC
:101500000C2003F073F803463B610D2003F06EF8E6
:101510000346FB607A69FB689A4209D900220321DD
:101520007868FFF7DFFE0B4B1B681846FFF7DDFD01
:101530007A693B699A4209D9002203217868FFF74A
:10154000D1FE044B1B681846FFF7DEFD1837BD4679
:1015500080BD00BF2000002080B582B000AF786061
:1015600039607B68012B0DD13B684FF6FF729342C7
:1015700008D1064801F0AAFE6423054A0221054865
:1015800000F078F80837BD4680BD00BF9803002002
:1015900029110008AC03002080B500AF4FF6FF71A1
:1015A0000120FFF7D9FF80BD80B485B000AF78601F
:1015B000174B1A687B681344154A1360154B1B6858
:1015C000FB60FB68002B1ED0FB685B7B022B16D1F7
:1015D000FB681A687B689A428CBF01230023DBB248
:1015E000002B06D0FB681A687B68D21AFB681A6069
:1015F00005E0FB6801225A73FB6800221A60FB6851
:101600009B68FB60DDE71437BD4680BC704700BFB8
:10161000C4030020C003002080B582B000AF144B8B
:101620001B687B607B68002B1ED07B685B7B012B7B
:1016300016D17B681B7B012B0CD0022B10D17B6851
:101640005A687B681A607B6802225A737B681B6940
:10165000984705E07B6800225A737B681B699847AE
:101660007B689B687B60DDE70837BD4680BD00BFB7
:10167000C003002080B487B000AFF8607A603B60A0
:101680000B46FB72FB6800225A73FB68FA7A1A73E6
:10169000FB687A681A61FB683A685A60184B1B68E5
:1016A000002B0AD1164AFB681360154B1B680022F9
:1016B0009A60FB6802225A731BE0114B1B687B6126
:1016C0007B699B68002B07D07A69FB689A4210D02F
:1016D0007B699B687B61F3E77A69FB689A4208D073
:1016E000FB6800229A607B69FA689A60FB680222B4
:1016F0005A73FB6818461C37BD4680BC704700BF54
:10170000C0030020684620F007018D4689B500AF70
:101710000120FFF749FFBD46BDE889408546704777
:1017200080B582B000AF786039607B681B6839682B
:101730001846FFF7B0FB034618460837BD4680BD84
:1017400080B58AB000AFF860B9607A6007F1140321
:101750000022B9681846FFF775F807F11403796895
:101760001846FFF70DF807F114031946F868FFF75C
:10177000D7FF012318462837BD4680BD80B584B009
:1017800000AF06237B8106233B810023FB810023DE
:10179000FB800023BB804FF6FF73BB819C4B1B88F3
:1017A0007B819C4B1B883B817B894EF6EE6293428A
:1017B0003CD04FF6FF72934203D0002B00F0AB8079
:1017C00012E13B89002B0BD102211020FFF7DAFB3D
:1017D00003467B807B88082B00F00F817B8812E119
:1017E0003B894EF6EE62934216D102211020FFF79C
:1017F000C9FB03467B807B88082B01D07B8802E1F4
:1018000000218448FFF71EFC03467B807B88082B61
:1018100000F0F3807B88F6E000F072F903467B80ED
:101820007B88082B00F0E9807B88ECE03B89002B6B
:101830004DD10023FB8130E0774B1B889AB2FB89A6
:10184000764931F813309A4201D1FB89BB81FA897C
:10185000B7F90C309A421DD0FB89704A32F8133028
:101860006F49184600F0E0F80346BB80BB88012BA7
:1018700010D0FB89694A32F81320694B1B8819463E
:10188000104600F0A9F90346FB80FB88082B01D025
:10189000FB88B8E0FB890133FB81FB891D2BCBD989
:1018A00000215B48FFF7CEFB03467B807B88082B3B
:1018B00001D07B88A7E002211820FFF763FB0346D5
:1018C0007B807B88082B00F09A807B889BE03B899B
:1018D0004FF6FF72934215D102211820FFF752FBF9
:1018E00003467B807B88082B01D07B888BE000211E
:1018F0004748FFF7A7FB03467B807B88082B7ED0F9
:101900007B8880E000F0FCF803467B807B88082B16
:1019100075D07B8877E03B89002B08D100F0F0F888
:1019200003467B807B88082B6BD07B886BE03B89F0
:101930004FF6FF7293420AD102211820FFF722FBD3
:1019400003467B807B88082B5BD07B885BE0002391
:10195000FB8130E0334B1B889AB2FB892F4931F869
:1019600013309A4201D1FB89BB81FA89B7F90C3057
:101970009A421DD0FB89294A32F81330284918466B
:1019800000F052F80346BB80BB88012B10D0FB89C6
:10199000224A32F81320224B1B881946104600F0C9
:1019A0001BF90346FB80FB88082B01D0FB882AE04B
:1019B000FB890133FB81FB891D2BCBD90021154805
:1019C000FFF740FB03467B807B88082B01D07B8898
:1019D00019E002211020FFF7D5FA03467B807B88AF
:1019E000082B0ED07B880EE000F08AF803467B803F
:1019F0007B88082B06D07B8805E000BF02E000BF93
:101A000000E000BF082318461037BD4680BD00BF68
:101A10000080000800C0000806800008280300209D
:101A2000C803002006C0000880B586B000AF03469A
:101A30003960FB800023FB8145F25553BB810123B4
:101A4000FB821C4B3B611B4BBB60002000F080F80D
:101A50000346FB81FB89AB2B01D1AB2325E0FB893E
:101A600003F5005302339B03BB60FB8901339A03E8
:101A7000114B13443B6112E03B691B88BB81BA895F
:101A8000FB889A4208D13B69023B1B889AB23B68AB
:101A90001A800023FB8207E03B69043B3B61BB6883
:101AA0009A1C3B699A42E7D3FB8A18461837BD4611
:101AB00080BD00BF00800008FE7F000880B584B0B4
:101AC00000AF03460A46FB801346BB800023FB8120
:101AD000BA88FB881146184600F07EF80346FB8161
:101AE000FB89802B07D1BA88FB881146184600F085
:101AF000CBF80346FB81FB8918461037BD4680BDF5
:101B000080B582B000AF0823FB7102211020FFF7DF
:101B100039FA0346FB71FB79082B01D0FB7911E000
:101B200000210A48FFF78EFA0346FB71FB79082B68
:101B300001D0FB7906E002211820FFF723FA0346C3
:101B4000FB71FB7918460837BD4680BD0080000850
:101B500080B485B000AF0346FB710623FB810623EA
:101B6000BB811B4B1B88FB811A4B1B88BB81FB79FC
:101B7000002B1BD0012B25D1BB89002B08D1FB8961
:101B80004EF6EE62934201D100231CE001231AE0DD
:101B9000FB89002B08D1BB894EF6EE62934201D13E
:101BA000012310E000230EE0AB230CE0FB89002BA7
:101BB00001D1002307E0BB89002B01D1012302E002
:101BC000AB2300E0002318461437BD4680BC7047A5
:101BD0000080000800C0000880B586B000AF034652
:101BE0000A46FB801346BB800823FB7400233B821C
:101BF000224B7B61224BFB600120FFF7A9FF0346CC
:101C00003B823B8AAB2B01D1AB2332E03B8A03F50D
:101C1000005302339B037B613B8A01339A03194BC8
:101C20001344FB6020E07B691B68B3F1FF3F18D1D0
:101C3000BB8819467869FFF705FA0346FB74FB7CFD
:101C4000082B02D0FB7C9BB213E07B690233FA883D
:101C500011461846FFF7F6F90346FB74FB7C9BB26E
:101C600007E07B6904337B617A69FB689A42DAD3C7
:101C7000802318461837BD4680BD00BF008000088D
:101C800000C00008FE7F000880B586B000AF0346A4
:101C90000A46FB801346BB800823FB73444B7B61E1
:101CA00000237B820023BB8100233B8200237B81B6
:101CB00000233B810020FFF74BFF0346BB81BB891C
:101CC000012B04D13A4B7B6118237B8209E0BB894D
:101CD000002B04D1374B7B6110237B8201E0AB23C7
:101CE00062E04EF6EE617869FFF7ACF90346FB73EC
:101CF000FB7B082B02D0FB7B9BB255E0BA88FB88AC
:101D000011461846FFF768FF03467B817B89082B45
:101D100001D07B8948E000233B8227E03B8A264AAA
:101D200032F81330FA889A421DD03B8A224A32F8A0
:101D3000133022491846FFF777FE03463B813B8963
:101D4000012B10D03B8A1C4A32F813201B4B1B88F6
:101D500019461046FFF740FF03467B817B89082B1D
:101D600001D07B8920E03B8A01333B823B8A1D2BDB
:101D7000D4D97B8A02211846FFF704F90346FB7386
:101D8000FB7B082B02D0FB7B9BB20DE00021786926
:101D9000FFF758F90346FB73FB7B082B02D0FB7B54
:101DA0009BB201E0FB7B9BB218461837BD4680BD55
:101DB0000080000800C0000828030020C80300209D
:101DC00080B483B000AF78607B681B681B697A6859
:101DD0009288114601228A401340002B14BF012330
:101DE0000023DBB218460C37BD4680BC704780B478
:101DF00083B000AF786039607B683A681A607B68AE
:101E000018460C37BD4680BC704780B483B000AF25
:101E100078600B467B807B6800221A607B6800221A
:101E20009A717B687A889A807B6818460C37BD4621
:101E300080BC704780B584B000AFF860B9601346CD
:101E4000FB71FB68BA681A60FB791946F86800F004
:101E500003F81037BD4680BD80B584B002AF78600E
:101E60000B46FB707B68FA789A717B681B68002BC5
:101E700016D07B689B79012B09D17B6818680123F8
:101E8000009301230022002101F09DFD08E07B6802
:101E900018680123009302230022002101F093FD22
:101EA0000837BD4680BD90B583B000AF78607B68D1
:101EB0001B68002B01D1002312E07B689B79012B6A
:101EC0000CBF01230023DBB21C467B681B6818464D
:101ED000FFF776FF03469C4214BF01230023DBB2C9
:101EE00018460C37BD4690BD80B584B000AF786011
:101EF0007B681B681846FFF763FF0346FB737B682C
:101F00005B681846FFF75CFF0346BB730A4B1B7800
:101F1000FA7B9A420AD0084AFB7B1370BA7BFB7BA0
:101F20009A4201D1012302E0022300E00023184677
:101F30001037BD4680BD00BFCA03002080B483B007
:101F400000AF78607B6800221A607B6800225A60CC
:101F50007B6800229A607B6800221A737B680022EB
:101F60005A737B6818460C37BD4680BC704780B5F5
:101F700082B000AF78607B689B681846FFF793FFDC
:101F8000034618460837BD4680BD80B485B000AF13
:101F9000F860B9607A603B60FB68BA681A60FB68F9
:101FA0007A685A60FB683A689A601437BD4680BC0C
:101FB000704780B485B000AF78607B6801225A73A7
:101FC0007B681B7BFB737B6800221A737B68002293
:101FD0005A73FB7B18461437BD4680BC704700001F
:101FE00080B584B000AF78607B685B7BDBB2002B90
:101FF00029D17868FFF778FF0346FB73FB7B002B42
:1020000003D07B68FA7B1A731DE07868FFF7AFFF97
:1020100003461A460D4B1B789A4214BF0123002336
:10202000DBB2002B0FD0094B1B7883F00103DAB22F
:10203000064B1A70054B1B78002B01D0032200E0E1
:1020400004227B681A731037BD4680BDCB03002085
:1020500080B582B000AF78600B46FB70FB78002B38
:1020600006D07B680433FA7811461846FEF700FB69
:102070000837BD4680BD80B582B000AF78607B6810
:10208000DB691846FFF79CFE034683F00103DBB2D1
:10209000002B01D0032327E07B681B6A1846FFF75B
:1020A0008FFE034683F00103DBB2002B01D0012336
:1020B0001AE07B685B6A1846FFF782FE034683F0EE
:1020C0000103DBB2002B01D002230DE07B689B6A89
:1020D0001846FFF775FE034683F00103DBB2002BC1
:1020E00001D0042300E0002318460837BD4680BD18
:1020F00080B584B000AF78607B6840331846FFF746
:1021000058FF0346FB73FB7B042B15D801A252F842
:1021100023F000BF39210008292100082D210008E3
:102120003121000835210008042306E0032304E0E0
:10213000012302E0022300E0002318461037BD46C9
:1021400080BD00BF80B586B000AFF860B9607A602E
:102150003B60FB680433F96804221846FEF768FA0E
:10216000FB68383301211846FFF74FFEFB68403308
:102170001846FFF7E3FEFB68BA68DA61FB687A6825
:102180001A62FB683A685A62FB683A6A9A62FB68AC
:102190007A6A1A63FB68BA6A5A63FB68FA6ADA6297
:1021A000FB6803F13800FB68DB6A01221946FFF780
:1021B00041FEFB6803F14000FB68196BFB685A6B3A
:1021C000FB683833FFF7E1FE0023FB82FB8A032B19
:1021D00007DCFB8AFA680021D154FB8A0133FB82B9
:1021E000F4E7FB6818461837BD4680BD80B584B05B
:1021F00000AF78607B6840331846FFF7F1FE7868DF
:1022000000F018F80346FB73094B1B78FA7B9A42DF
:102210000AD0074AFB7B1370FB7B002B04D0FB7BAF
:1022200019467868FFF714FF1037BD4680BD00BF20
:10223000CC03002080B584B000AF78607868FFF7E9
:1022400057FF0346FB73FB7B002B01D0FB7B03E0B6
:102250007868FFF710FF034618461037BD4680BD6B
:1022600080B483B000AF78607B6818460C37BD46F9
:1022700080BC704780B582B000AF786039607B6801
:1022800000221A603968786800F005F87B68184603
:102290000837BD4680BD80B483B000AF7860396038
:1022A0007B683A681A600C37BD4680BC704780B5C1
:1022B00082B000AF78607B681B681846FEF746FE68
:1022C000034618460837BD4680BD80B582B000AFD2
:1022D00078607B681B681846FEF747FE0346184681
:1022E0000837BD4680BD80B584B000AFF860B960E6
:1022F0007A603B60FB6800221A70FB6800225A700B
:10230000FB680433184600F0E1FFFB68BA689A6185
:10231000FB687A68DA61FB683A681A62FB68BA6936
:102320005A62FB6800221A70FB6800225A70FB6830
:1023300018461037BD4680BD80B483B000AF7860CA
:102340007B68043318460C37BD4680BC70470000DC
:1023500090B585B000AF78607B685B68184602F086
:10236000EEF80346FB73FB7B002B00F0C9827B6811
:102370001B7D002B05D0FB7B1946786800F0E4FD3F
:10238000BEE2B14B1B78002B06D0FB7B022B03D1A6
:10239000AD4B00221A70B3E2FB7B012B0CBF012373
:1023A0000023DAB2A84B1A707B681B7C142B00F256
:1023B000A38201A252F823F00D2400084324000850
:1023C00097240008CD2400080325000839250008BB
:1023D0006F250008A5250008DB2500081126000848
:1023E0004D26000883260008B9260008EF260008BD
:1023F000252700085B27000891270008F32700081D
:102400002928000869280008C3280008FB7B032B43
:1024100008D0042B0BD0012B0ED10221786802F0DA
:10242000A7FA6DE20121786802F006FA68E211214C
:10243000786802F001FA63E20021786802F0FCF9A2
:102440005EE2FB7B032B17D0042B1AD0012B1DD18E
:102450007B68DC687B68DB68184602F0D1F90346CC
:1024600083F00103DBB21946204602F0B7F90121DF
:10247000786802F0E1F943E20221786802F0DCF9C1
:102480003EE21121786802F0D7F939E2002178683C
:1024900002F0D2F934E2FB7B032B08D0042B0BD0E3
:1024A000012B0ED10321786802F0C6F928E206213B
:1024B000786802F0C1F923E20121786802F0BCF9E2
:1024C0001EE20021786802F0B7F919E2FB7B032BCA
:1024D00008D0042B0BD0012B0ED10521786802F017
:1024E00047FA0DE20421786802F0A6F908E2052116
:1024F000786802F0A1F903E20221786802F09CF901
:10250000FEE1FB7B032B08D0042B0BD0012B0ED15B
:102510000621786802F02CFAF2E10521786802F0D1
:102520008BF9EDE10321786802F086F9E8E10221F8
:10253000786802F081F9E3E1FB7B032B08D0042BE0
:102540000BD0012B0ED10721786802F011FAD7E1E8
:102550000321786802F070F9D2E10421786802F072
:102560006BF9CDE10221786802F066F9C8E1FB7BE6
:10257000032B08D0042B0BD0012B0ED10721786838
:1025800002F05AF9BCE10A21786802F055F9B7E186
:102590000221786802F050F9B2E10021786802F077
:1025A0004BF9ADE1FB7B032B08D0042B0BD0012BA7
:1025B0000ED10821786802F0DBF9A1E108217868E2
:1025C00002F03AF99CE10921786802F035F997E1C7
:1025D0000621786802F030F992E1FB7B032B08D0EA
:1025E000042B0BD0012B0ED10921786802F0C0F921
:1025F00086E10921786802F01FF981E107217868F6
:1026000002F01AF97CE10621786802F015F977E109
:10261000FB7B032B08D0042B0BD0012B0ED10A21FE
:10262000786802F0A5F96BE10721786802F004F9F7
:1026300066E10821786802F0FFF861E10621786818
:1026400002F0FAF85CE100BF24030020FB7B032BBF
:1026500008D0042B0BD0012B0ED10421786802F096
:1026600087F94DE10B21786802F0E6F848E1062190
:10267000786802F0E1F843E10021786802F0DCF8C4
:102680003EE1FB7B032B08D0042B0BD0012B0ED19A
:102690000C21786802F06CF932E10C21786802F0C4
:1026A000CBF82DE10A21786802F0C6F828E1002174
:1026B000786802F0C1F823E1FB7B032B08D0042BE0
:1026C0000BD0012B0ED10B21786802F051F917E1E4
:1026D0000D21786802F0B0F812E10B21786802F061
:1026E000ABF80DE10021786802F0A6F808E1FB7B69
:1026F000032B08D0042B0BD0012B0ED103217868BB
:1027000002F036F9FCE00E21786802F095F8F7E067
:102710000C21786802F090F8F2E00021786802F06D
:102720008BF8EDE0FB7B032B08D0042B0BD0012BA7
:102730000ED10F21786802F07FF8E1E0112178686E
:1027400002F07AF8DCE00D21786802F075F8D7E045
:102750000021786802F070F8D2E0FB7B032B08D0F0
:10276000042B0BD0012B0ED10F21786802F000F959
:10277000C6E01021786802F05FF8C1E010217868A7
:1027800002F05AF8BCE00E21786802F055F8B7E084
:10279000FB7B032B1ED0042B21D0012B24D1102036
:1027A00001F024FF0346BB73BB7B022B01D0022345
:1027B00000E001231946102001F027FF7B68DB6849
:1027C000BA7B1146184601F0FCFF1021786802F030
:1027D00033F895E00F21786802F02EF890E00F2191
:1027E000786802F029F88BE00E21786802F024F86E
:1027F00086E0FB7B032B08D0042B0BD0012B0ED1E2
:102800001221786802F018F87AE00121786802F065
:1028100013F875E00E21786802F00EF870E00021E0
:10282000786802F009F86BE0FB7B032B0DD0042BDA
:1028300010D0012B13D101F0A7FF7B689868324BB1
:102840000022012101F09DFE5AE01321786801F079
:10285000F3FF55E01421786801F0EEFF50E01121FC
:10286000786801F0E9FF4BE0FB7B032B1AD0042BC7
:102870001DD0012B20D1112001F0B8FE0346002B02
:1028800014BF012300237B737B7B83F00103DBB246
:102890009BB21946112001F0B8FE1321786801F0AF
:1028A000CBFF2DE01421786801F0C6FF28E012214B
:1028B000786801F0C1FF23E01121786801F0BCFFC6
:1028C0001EE0FB7B032B08D0042B0BD0012B0ED179
:1028D0000D21786802F04CF812E01221786801F0BE
:1028E000ABFF0DE01321786801F0A6FF08E011218D
:1028F000786801F0A1FF03E00021786801F09CFFF7
:102900001437BD4690BD00BFD84A000880B586B0D8
:1029100000AFF860B9607A60FB689B687A68B96854
:102920001846FEF70DFFFB681B7D002B3BD0BB68F4
:102930007B617B695A1C7A6193F90030002B14BFCC
:1029400001230023DBB2002BF3D100237B827B69C0
:1029500093F90030DBB2303BDBB27B7497F9113076
:10296000184602F033F80346002B14BF012300235E
:10297000DBB2002B09D17B69013B7B617B8A013390
:102980007B827A69BB689A42E1D2FB689B687A8A4B
:102990001146184600F0B9FDFB689B6801211846F6
:1029A00000F0D0FD05E0FB689B680021184600F0B0
:1029B000C9FD1837BD4680BD80B594B000AF7860C2
:1029C0000B467B80002387F84F307B681B7C142BE1
:1029D00000F29C8201A252F823F000BF312A0008C5
:1029E000892A0008C72A0008E52A0008212B0008C8
:1029F0005D2B0008992B0008B72B0008F32B00086B
:102A00002F2C00086B2C0008A72C0008E32C0008D2
:102A1000612D00089D2D0008D92D0008152E0008F5
:102A2000532E0008712E00088F2E0008D32E0008A8
:102A30007B681B68184601F0F3FE0346BB64022363
:102A400087F84F3097F84F30184601F0F3FD78645F
:102A50007B689B6800220021184601F07CFD7B68A2
:102A60009B68BA6CAE491846FEF76AFE7B689B68A5
:102A700000220121184601F06EFD7B881A46796C10
:102A80007868FFF743FF41E27B689868A54B002216
:102A9000002101F076FD7B68DB68184601F0B0FE8E
:102AA0000346002B07D07B6898689F4B00220121CA
:102AB00001F067FD2AE27B6898689C4B00220121A7
:102AC00001F05FFD22E27B689868994B00220021AB
:102AD00001F057FD7B689868964B0022012101F0B8
:102AE00050FD13E27B689868934B0022002101F0AF
:102AF00048FD7B689B6800220121184601F02BFDF0
:102B0000052387F84F3097F84F30184601F092FDB3
:102B100038647B881A46396C7868FFF7F7FEF5E170
:102B20007B689868854B0022002101F02AFD7B68B4
:102B30009B6800220121184601F00DFD062387F84D
:102B40004F3097F84F30184601F074FDF8637B88DA
:102B50001A46F96B7868FFF7D9FED7E17B68986869
:102B6000774B0022002101F00CFD7B689B6800225E
:102B70000121184601F0EFFC072387F84F3097F842
:102B80004F30184601F056FDB8637B881A46B96B82
:102B90007868FFF7BBFEB9E17B689868694B002253
:102BA000002101F0EEFC7B689868624B0022012155
:102BB00001F0E7FCAAE17B689868634B00220021E2
:102BC00001F0DFFC7B689B6800220121184601F0C0
:102BD000C2FC082387F84F3097F84F30184601F0B1
:102BE00029FD78637B881A46796B7868FFF78EFE3B
:102BF0008CE17B689868554B0022002101F0C1FCF4
:102C00007B689B6800220121184601F0A4FC09237F
:102C100087F84F3097F84F30184601F00BFD3863B6
:102C20007B881A46396B7868FFF770FE6EE17B6827
:102C30009868474B0022002101F0A3FC7B689B6849
:102C400000220121184601F086FC082387F84F3046
:102C500097F84F30184601F0EDFCF8627B881A4671
:102C6000F96A7868FFF752FE50E17B689868394B43
:102C70000022002101F085FC7B689B680022012175
:102C8000184601F068FC042387F84F3097F84F305E
:102C9000184601F0CFFCB8627B881A46B96A78689A
:102CA000FFF734FE32E17B6898682B4B002200214D
:102CB00001F067FC7B689B6800220121184601F047
:102CC0004AFC0C2387F84F3097F84F30184601F034
:102CD000B1FC78627B881A46796A7868FFF716FE3D
:102CE00014E17B6898681D4B0022002101F049FC2B
:102CF0007B689B6800220121184601F02CFC0B2305
:102D000087F84F3097F84F30184601F093FC38623F
:102D10007B881A46396A7868FFF7F8FDF6E000BF4D
:102D2000EC4A0008004B0008144B0008284B000830
:102D30003C4B0008504B0008644B0008784B0008DF
:102D40008C4B0008A04B0008B44B0008C84B00088F
:102D5000DC4B0008F04B0008044C0008184C00083D
:102D60007B6898686B4B0022002101F00AFC7B68AD
:102D70009B6800220121184601F0EDFB032387F830
:102D80004F3097F84F30184601F054FCF8617B88BB
:102D90001A46F9697868FFF7B9FDB7E07B6898686B
:102DA0005D4B0022002101F0ECFB7B689B68002258
:102DB0000121184601F0CFFB0F2387F84F3097F819
:102DC0004F30184601F036FCB8617B881A46B96965
:102DD0007868FFF79BFD99E07B6898684F4B00226D
:102DE000002101F0CEFB7B689B6800220121184680
:102DF00001F0B1FB0F2387F84F3097F84F3018469A
:102E000001F018FC78617B881A4679697868FFF7C9
:102E10007DFD7BE07B689868414B0022002101F03A
:102E2000B0FB102001F0E2FB0346FB74FB7C012B9E
:102E300007D17B6898683B4B0022012101F0A1FB80
:102E400064E07B689868384B0022012101F099FB0F
:102E50005CE07B689868354B0022002101F091FB13
:102E60007B689868324B0022012101F08AFB4DE01B
:102E70007B6898682F4B0022002101F082FB7B6861
:102E800098682B4B0022012101F07BFB3EE07B6820
:102E90009868294B0022002101F073FB112001F0FA
:102EA000A5FB0346002B14BF01230023DBB2002B3C
:102EB00007D07B689868214B0022012101F061FB5B
:102EC00024E07B6898681E4B0022012101F059FB29
:102ED0001CE07B6898681B4B0022002101F051FB2D
:102EE0007B689B6800220121184601F034FB0D230A
:102EF00087F84F3097F84F30184601F09BFBF86089
:102F00007B881A46F9687868FFF700FD5037BD46A0
:102F100080BD00BF2C4C0008404C0008544C0008F9
:102F2000684C00087C4C0008904C0008A44C000839
:102F3000504B0008B84C0008CC4C0008E04C00088E
:102F4000F44C0008084D000880B582B000AF7860EE
:102F50000B46FB707B685B7C023B0D2B00F2C6804E
:102F600001A252F823F000BFA12F0008A12F0008F2
:102F7000A12F0008A12F000811300008A12F000880
:102F8000A12F000811300008A12F0008813000088F
:102F9000A12F0008A12F0008A12F0008A12F0008D1
:102FA000FB78013B032B2CD801A252F823F000BF81
:102FB000ED2F0008ED2F0008C12F0008CF2F0008CB
:102FC0007B685B8A02339AB27B685A8219E07B681D
:102FD0005B8A012B06DD7B685B8A023B9AB27B68C9
:102FE0005A820EE07B6800225A820AE07B685A7C93
:102FF0007B685B8A1946104601F007FB7B6800225C
:103000001A757B685B8A19467868FFF7D5FC70E013
:10301000FB78013B032B2CD801A252F823F000BF10
:103020005D3000085D300008313000083F30000896
:103030007B685B8A0A339AB27B685A8219E07B68A4
:103040005B8A092B06DD7B685B8A0A3B9AB27B6848
:103050005A820EE07B6800225A820AE07B685A7C22
:103060007B685B8A1946104601F0CFFA7B68002224
:103070001A757B685B8A19467868FFF79DFC38E013
:10308000FB78013B032B2AD801A252F823F000BFA2
:10309000C5300008C5300008A1300008AF30000876
:1030A0007B685B8A01339AB27B685A8217E07B683F
:1030B0005B8A002B12DD7B685B8A013B9AB27B68DE
:1030C0005A820CE07B685A7C7B685B8A1946104602
:1030D00001F09BFA7B6800221A7500E000BF7B6854
:1030E0005B8A19467868FFF767FC02E07B6800227C
:1030F0001A75002318460837BD4680BD80B584B0D8
:1031000000AF0123FB730123BB81BB89122B32DC8F
:10311000BB89FB720023FB80FB7A9BB2BA1D114670
:103120001846FEF781FC03463B813B89012B14D1F5
:10313000FB7A184601F0CAFA0346FB80FB7A9BB281
:10314000FA8811461846FEF7B9FC03463B813B89D5
:10315000082B07D00023FB7304E03B89002B01D030
:103160000023FB73BB89F988054A22F81310BB8939
:103170000133BB81C9E7FB7B18461037BD4680BDD4
:103180006403002080B400AF094B1B69DB0FDBB286
:10319000002B07D0064B074A5A60054B064A5A6077
:1031A000012300E000231846BD4680BC704700BFE5
:1031B000003C024023016745AB89EFCD80B400AFEE
:1031C000054A054B1B6943F0004313610123184670
:1031D000BD4680BC704700BF003C024080B582B055
:1031E00000AFFFF7CFFFFEF7C9FA0346082B0CBF6D
:1031F00001230023FB71FFF781FFFFF7DFFFFB795E
:1032000018460837BD4680BD80B584B000AF034680
:103210000A46FB801346BB80FB88122B01DD00238E
:1032200016E0FB880C49BA8821F81320FFF7AAFFA3
:10323000BA88FB8811461846FEF740FC0346FB811E
:10324000FFF7BCFFFB89082B0CBF01230023DBB277
:1032500018461037BD4680BD6403002080B483B09B
:1032600000AF0346FB80FB88122B02DD4FF0FF33DB
:1032700003E0FB88034A32F8133018460C37BD468A
:1032800080BC70476403002080B483B000AF034665
:10329000FB71FB79052B02DD4FF6FE7304E0FB7931
:1032A000044A32F813309BB218460C37BD4680BC36
:1032B000704700BF8C03002080B400AF024B18465B
:1032C000BD4680BC704700BF8C03002080B483B033
:1032D00000AF78607B6800225A607B6800229A60A9
:1032E0007B680022DA607B6800221A707B6801220A
:1032F0001A747B6818460C37BD4680BC704780B492
:1033000083B000AF786039607B683A689A600C37A8
:10331000BD4680BC704780B483B000AF7860396030
:103320007B683A68DA600C37BD4680BC704780B471
:1033300083B000AF78607B685B68002B0CBF012313
:103340000023DBB218460C37BD4680BC704780B402
:1033500083B000AF78607B68DB68002B0CBF012373
:103360000023DBB218460C37BD4680BC704780B5E1
:1033700082B000AF78607B681B78042B03D178683B
:10338000FDF7DAFE02E07868FDF7E0FE0837BD469B
:1033900080BD80B483B000AF78607B681B685B69D8
:1033A0007A689288114601228A401340002B14BF8C
:1033B00001230023DBB218460C37BD4680BC7047A2
:1033C00080B582B000AF78607B681B68184600F05B
:1033D00033FA0837BD4680BD80B582B000AF786053
:1033E0007B681B68184600F037FA0837BD4680BD79
:1033F00080B582B000AF78607B681B681846FFF725
:10340000C8FF034618460837BD4680BD80B582B068
:1034100000AF7860032001F0D9F80346184608375A
:10342000BD4680BD80B483B000AF7860FEE7000089
:1034300080B483B000AF786039607B6801221A6085
:103440003B68034A1A600C37BD4680BC704700BF1A
:103450000400002080B500AFFDF73EF8014B024AA2
:103460009A6080BD00ED00E00000000880B500AF6C
:10347000FDF766F880BD80B582B000AF7860396036
:10348000386800F00FFD0837BD4680BD80B582B0BA
:1034900000AF786010217868FDF78DFC0521786811
:1034A000FFF7E9FF012318460837BD4680BD80B508
:1034B00084B000AF78600B46FB700C23FB73FB7885
:1034C000012B04D0022B04D10E23FB7301E00F2348
:1034D000FB73FB7B19467868FDF76DFC0521786866
:1034E000FFF7C9FF012318461037BD4680BD80B5E0
:1034F00082B000AF78607B681B681846FFF7C6FF94
:10350000034618460837BD4680BD80B582B000AF7F
:1035100078600B467B807B88002B0ED07868FFF7A5
:10352000E6FF034683F00103DBB2002B01D000234A
:1035300004E07B88013B7B80EDE7012318460837D8
:10354000BD4680BD80B582B000AF78600B46FB7091
:103550007B681B68FA7811461846FFF7A8FF0346F8
:1035600018460837BD4680BD80B483B000AF786090
:103570007B6801221A707B6818460C37BD4680BCF8
:10358000704780B582B000AF786000F02FFE7B6896
:103590005B691846FEF7DCFE0837BD4680BD0000BB
:1035A00080B500AF0148FFF7ECFF80BD04020020AA
:1035B00080B400AF024B1846BD4680BC704700BFC8
:1035C0000402002080B582B000AF786039607B686B
:1035D000012B0DD13B684FF6FF72934208D106488C
:1035E000FFF7C2FF0523054A02210548FEF742F80E
:1035F0000837BD4680BD00BF04020020A135000889
:103600001C02002080B500AF4FF6FF710120FFF7CC
:10361000D9FF80BD80B485B000AF78607B6803F0CF
:103620000703FB600B4BDB68BB60BA684FF6FF0318
:103630001340BB60FB681A02BB68134343F0BF63CF
:1036400043F40033BB60034ABB68D3601437BD4604
:1036500080BC704700ED00E080B483B000AF03464B
:10366000FB71084997F907305B0997F9072002F0C9
:103670001F02012000FA02F241F823200C37BD4658
:1036800080BC704700E100E080B483B000AF034627
:103690003960FB7197F90730002B0CDA0E4997F966
:1036A000073003F00F03043B3A68D2B21201D2B2E2
:1036B0000B441A760BE0094A97F9073018463B6825
:1036C000DBB21B01D9B213180A4683F800230C376A
:1036D000BD4680BC704700BF00ED00E000E100E0A7
:1036E00080B489B000AFF860B9607A60FB6803F01D
:1036F0000703FB61FB69C3F10703042B28BF042305
:10370000BB61FB690433062B02D9FB69033B00E074
:1037100000237B61BB69012202FA03F35A1EBB68D6
:103720001A407B699A407B69012101FA03F3591E13
:103730007B680B40134318462437BD4680BC704756
:1037400080B582B000AF78607B68013BB3F1807FC9
:1037500001D301230FE00A4A7B68013B53600F212C
:103760004FF0FF30FFF790FF054B00229A60044BAB
:1037700007221A60002318460837BD4680BD00BFE7
:1037800010E000E080B483B000AF78607B685A68D6
:103790007B689B689A420CBF01230023DBB218466A
:1037A0000C37BD4680BC704780B582B000AF7860F2
:1037B0007868FFF7E7FF034683F00103DBB21846A2
:1037C0000837BD4680BD80B483B000AF78607B68A9
:1037D00000225A607B6800229A600C37BD4680BC8C
:1037E000704780B483B000AF0346FB71FB79012BB7
:1037F00002D0022B00D1FEE70C37BD4680BC7047DB
:1038000080B485B000AFF860B9601346FB80FB68F8
:10381000BA681A60FB68FA889A80FB6803229A717A
:10382000FB680022DA71FB6801221A72FB681846F5
:103830001437BD4680BC704780B483B000AF786059
:103840007B681B687A689288114601228A409A61D7
:103850000C37BD4680BC704780B483B000AF786041
:103860007B681B687A6892881032012101FA02F2A3
:103870009A610C37BD4680BC704780B582B000AFFE
:1038800078600B46FB70FB78002B03D07868FFF75D
:10389000D3FF02E07868FFF7DFFF0837BD4680BD41
:1038A00080B483B000AF78600B46FB707B681B6808
:1038B0007A68126811687A6892885200032000FAC8
:1038C00002F2D2430A401A607B681B687A68126869
:1038D0001168F8787A689288520000FA02F20A4376
:1038E0001A600C37BD4680BC704780B483B000AF0F
:1038F00078600B46FB707B681B687A681268916879
:103900007A6892885200032000FA02F2D2430A40F9
:103910009A607B681B687A6812689168FA7810462A
:103920007A689288520000FA02F20A439A600C37D1
:10393000BD4680BC704780B483B000AF78600B4652
:10394000FB707B681B687A681268D1687A68928815
:103950005200032000FA02F2D2430A40DA607B6888
:103960001B687A681268D168F8787A689288520081
:1039700000FA02F20A43DA600C37BD4680BC704799
:1039800080B483B000AF78600B46FB707B681B6827
:103990007A68126851687A689288104601228240DB
:1039A000D2430A405A607B681B687A681268526882
:1039B000F97878688088814089B20A435A600C3768
:1039C000BD4680BC704780B582B000AF78600846C5
:1039D00011461A460346FB700B46BB7013467B70BC
:1039E000FB7819467868FFF75BFFBB781946786863
:1039F000FFF7C6FF7B7819467868FFF79CFF3B7C92
:103A000019467868FFF771FF0837BD4680BD80B45E
:103A100089B000AF78600B46FB70FB78072B01DDA7
:103A2000002349E00F23FB61FB78BB617B689B8827
:103A3000072B1BDC7B689B88DBB29B00FB757B68DC
:103A40001B681B6A3B61FB7D0F2202FA03F3DB4319
:103A50003A6913403B61FB7DBA6902FA03F33A69A4
:103A600013433B617B681B683A691A627B689B88D9
:103A7000082B20DD7B689B880F2B1CDC7B689B88D8
:103A8000083BDBB29B00FB737B681B685B6ABB6017
:103A9000FB7B0F2202FA03F3DB43BA681340BB60DF
:103AA000FB7BBA6902FA03F3BA681343BB607B6815
:103AB0001B68BA685A62012318462437BD4680BC89
:103AC0007047000080B400AF024B1B681846BD462B
:103AD00080BC7047C403002080B584B000AF78601C
:103AE000FFF7F0FFF860FA687B68D31A18461037C2
:103AF000BD4680BD80B485B000AF78607B68DB09CF
:103B00000C4AA2FB03239B0AFB60FB6803F007033C
:103B1000FB60094AFB681360074AFB6843F4C05323
:103B20001360054AFB6843F4E06313601437BD4635
:103B300080BC7047C7541E01003C024080B58CB069
:103B400000AF7860396000233B620023FB610023F3
:103B5000BB6100237B61464B01221A603868FFF786
:103B6000C9FF0223FB62FB6A3F2B45D87A68FB6AD8
:103B7000B2FBF3F33B613B693E4A934238D93B6960
:103B80003D4A934234D84023BB62BB6AB3F5D87F29
:103B90002ED83B69BA6A02FB03F3FB60FB68374A25
:103BA000934221D9FB68364A93421DD802237B6297
:103BB0007B6A082B18D8FA687B6AB2FBF3F3BB6008
:103BC000BA683B689A420BD8BA687B699A4207D9AF
:103BD000BB687B61FB6A3B62BB6AFB617B6ABB6162
:103BE0007B6A02337B62E3E7BB6A0133BB62CCE7EB
:103BF000FB6A0133FB62B6E72249FB699A013B6A23
:103C00001A43BB695B08013B1B04134343F0146375
:103C10004B601C4B00229A601B4B1B68002B0CBF97
:103C200001230023DBB2002BF6D1184B01221A60CE
:103C3000174B1B68002B0CBF01230023DBB2002BAA
:103C4000F6D1104A0F4B9B6843F0020393600D4B73
:103C50009B6803F00C03082B14BF01230023DBB285
:103C6000002BF4D17B6918463037BD4680BD00BFBC
:103C7000400047423F420F0080841E00FF8FD00368
:103C800000CCBF1900380240440047426000474260
:103C90006400474280B400AFBD4680BC704700005E
:103CA00080B483B000AF00237B60124A114B1B6BC2
:103CB00043F4800343F09F0313630E4B1B6B7B6045
:103CC0000C4A0C4B1B6C43F400131364094B1B6C24
:103CD00003F400137B60074A064B5B6C43F480736C
:103CE0005364044B5B6C03F480737B600C37BD46FC
:103CF00080BC70470038024080B500AF1548FFF720
:103D0000F9FE14491448FFF719FFFFF7C3FFFFF747
:103D1000C7FFFCF715FC114B1B68114AA2FB0323DC
:103D20009B091846FFF70CFD0346002B14BF012327
:103D30000023DBB2002B02D00220FFF752FD00F07F
:103D4000ABF800F00FF800F01BF800F0E3F800F01B
:103D500099F880BD0048E80100127A002400002094
:103D6000D34D621080B400AF044A044B1B6B43F088
:103D70009F031363BD4680BC704700BF00380240FC
:103D800080B584B000AF0623FB60FFF795FA0346C9
:103D9000BB60364A354B5B6C43F480735364334AE3
:103DA000324B1B6B43F480031363314A304B5B6827
:103DB00043F4403353602F4A2E4B5B6843F48073C7
:103DC00053602C4A2B4B9B6843F002039360294AB3
:103DD000284BDB6A43F4A003D362264A254B9B6839
:103DE00043F4007343F001039360234B1B68234AA1
:103DF000A2FB03239A0C13465B0013447B607B6891
:103E0000002B14BF01230023DBB2002B03D07B68FF
:103E1000013B7B60F3E7174A164B1B6823F0020354
:103E20001360144A134B9B6843F480739360144AE5
:103E3000134B1B6823F001031360114A104B1B68DE
:103E400023F4802313600E4B06225A600C4A094B60
:103E5000DB6C93600A4ABB68D360094A084B1B6855
:103E600043F0010313601037BD4680BD00380240A7
:103E700000230140002001402400002083DE1B437A
:103E80001064024080B400AFBD4680BC704780B46F
:103E900000AFBD4680BC704780B500AF0320FFF780
:103EA000B9FB80BD80B584B000AF7860FFF70AFE33
:103EB0000346FB60FFF706FE0246FB68D21A7B68EA
:103EC0009A4234BF01230023DBB2002B02D000F062
:103ED0008DF9EFE71037BD4680BD80B483B000AFE9
:103EE00078607B6800229A827B6818460C37BD4652
:103EF00080BC704780B582B000AF0346FB71FB7990
:103F000019460348FFF7B9FC0837BD4680BD00BF1E
:103F10001403002080B584B002AF03230093012373
:103F2000012202215948FFF74EFD0323009301238C
:103F3000012202215648FFF746FD04215348FFF7AE
:103F400066FD04215248FFF762FD0323009300231E
:103F5000002201214F48FFF736FD4E48FFF76CFC69
:103F60004D4B1B684D4A1A604B4B1B6864221A610B
:103F7000494B1B684A4A5A60474B1B68484A9A603B
:103F8000454B1B681B68444A12681268126822F08D
:103F900001021A60404B1B681B681B6803F0010399
:103FA000002B14BF01230023DBB2002BF2D100222F
:103FB00000210320FFF794FB034619461F20FFF75B
:103FC00063FB1F20FFF748FB002200210320FFF7BF
:103FD00087FB034619462020FFF756FB2020FFF7FA
:103FE0003BFB304B1B687B607B682F4AA2FB0323A3
:103FF0009B0C03F03F033B60274B1B681B683A6830
:104000005A60254B1B681B683A6801321A62224BC2
:104010001B681B68A022DA611F4B1B681B684FF4EA
:1040200080429A601C4B1B681B680022DA601A4BA6
:104030001B681B68184A12681268526842F4E062F2
:104040005A60154B1B681B68134A12681268126885
:1040500042F001021A60104B1B681B681B6803F0DA
:104060000103002B0CBF01230023DBB2002BF2D194
:104070000B48FFF7A8FB0D48FFF7A5FB064B1B6895
:1040800000229A750837BD4680BD00BFFC020020A3
:1040900008030020140300200C00002000540040FE
:1040A000500200202400002083DE1B43CC020020AD
:1040B00090B583B000AF2D4B1B681B685B697B60BC
:1040C0007B6803F00103002B0DD0284B1B681B6895
:1040D000264A1268928A92B252001A61234B1B68D8
:1040E00002229A753FE07B6803F00203002B09D09F
:1040F0001E4B1B681B689B693B601C4B1B680322A3
:104100009A7530E07B6803F08403002B27D01848B1
:10411000FFF74AFB0346002B0CD0144B1B681C68AE
:104120001348FCF7DBFA03462361104B1B6803229C
:104130009A7518E00D4B1B681B680C4A12681268D0
:10414000126842F400721A60084B1B6800229A75CC
:10415000064B1C68FFF7B6FC0346E36003E0034B25
:104160001B6800229A750C37BD4690BD0C000020DC
:104170005002002090B583B000AF104B1B68013394
:104180000E4A13600E4B1B681B685B697B600C4B0F
:104190001B681B680A4A12681268526922F45F425F
:1041A0005A61074B1B6800229A75054B1C68FFF784
:1041B00089FC0346E3600C37BD4690BD2003002018
:1041C0000C00002080B400AF074B1B681B689B6984
:1041D00003F00203002B14BF01230023DBB21846B7
:1041E000BD4680BC704700BF0C00002090B583B076
:1041F00000AF414B1B68DB681846FFF76DFC0346B8
:10420000032B94BF01230023DBB2002B71D1FFF7F6
:10421000D9FF0346002B6CD1374B1B689B7DDBB26B
:10422000002B14BF01230023DBB2002B61D1324BE2
:104230001B689B681846FFF7A5FA0346002B58D168
:104240002D4B1B689B681846FCF748FA0346FE2B6B
:1042500014BF01230023DBB2002B09D0264B1B68BF
:104260009B681846FFF78EFA0346002B41D1E7E71B
:10427000214B1B689B681846FFF784FA0346002B06
:1042800037D11D4B1B689B681846FCF727FA03467D
:10429000BB710023FB71FA79BB799A421BDA164B8A
:1042A0001B689B681846FFF76DFA0346002B20D168
:1042B000114B1B685C68104B1B689B681846FCF729
:1042C0000DFA0346DBB219462046FCF7D1F9FB791B
:1042D0000133FB71DFE7084B1B6801229A75064B1F
:1042E0001B681B68044A12681268126842F48072E4
:1042F0001A600C37BD4690BD0C00002080B584B01C
:1043000000AF03463960FB801346BB80324B1B680D
:104310009B7DDBB2002B0AD12F4B1B689B68184694
:10432000FFF742FA0346002B01D0012300E00023EF
:10433000002B01D0FFF75AFF274B1B68FA889A829F
:10434000254B1B689B681846FCF7F2F90346002BC7
:1043500001D000233CE0204B1B689B68FE211846DF
:10436000FCF786F91C4B1B689B68BA88D2B21146D1
:104370001846FCF77DF90023FB60BA88FB689A4277
:1043800018D9154B1B689B681846FCF7D1F90346F2
:10439000002B01D000231BE00F4B1B6898683A6884
:1043A000FB6813441B781946FCF762F9FB6801337C
:1043B000FB60E2E7084B1B689B7DDBB2002B0CBF68
:1043C00001230023DBB2002B01D0FFF70FFF0123F5
:1043D00018461037BD4680BD0C000020684620F00E
:1043E00007018D4681B400AF044B1B680133034ABB
:1043F0001360BD4681BC8546704700BF1000002099
:10440000684620F007018D4681B400AF044B1B685D
:104410000133034A1360BD4681BC8546704700BF27
:1044200014000020684620F007018D4689B500AFD2
:10443000054B1B680133044A1360FFF739FEBD4684
:10444000BDE889408546704718000020684620F086
:1044500007018D4689B500AF054B1B680133044A3F
:104460001360FFF787FEBD46BDE88940854670476B
:104470001C00002080B582B000AF786039607B6896
:10448000012B20D13B684FF6FF7293421BD11E22B5
:104490000E490F48FCF7CCF8C8220E490E48FCF72D
:1044A000C7F80E48FFF719FD06220D490D48FFF722
:1044B000A7F907220A490C48FFF7A2F907220B497E
:1044C0000B48FFF79DF90837BD4680BD300200203C
:1044D0005002002068020020CC020020E4020020EC
:1044E00000040240FC0200200803002000080240F3
:1044F0001403002080B500AF4FF6FF710120FFF7D5
:10450000B9FF80BD80B584B000AF78607B680433AC
:104510001846FFF749F90346002B0BD07B6804339C
:104520001846FCF7DBF80346FB73FB7B002BEDD052
:10453000FB7B00E0002318461037BD4680BD80B5E8
:1045400082B000AF78607868FFF7DCFF034618465A
:104550000837BD4680BD80B582B000AF78600B469D
:104560007B8013463B807B681B687A88D1B23A888F
:10457000D2B21846FCF7C9FC034618460837BD46B8
:1045800080BD80B584B000AFF8607B600B467B8156
:1045900013463B81FB681B687A89D1B23A89D2B253
:1045A0001846FCF7B2FC034683F00103DBB2002B94
:1045B00001D0002306E0FB681B6879681846FCF709
:1045C0006AFC034618461037BD4680BD80B584B0EE
:1045D00000AF0346FB71FB791846FEF755FE034614
:1045E000FB60FB6818461037BD4680BD80B582B0C1
:1045F00000AF0346FB71FB799BB21846FEF72EFE17
:10460000034618460837BD4680BD80B582B000AF6E
:1046100003460A46FB711346BB80FB799BB2BA88FE
:1046200011461846FEF7F0FD034618460837BD460A
:1046300080BD000080B483B000AF0346FB71FB79FE
:10464000023B0D2B2CD801A252F823F0894600081A
:104650009146000895460008854600088D460008EA
:1046600085460008854600088D46000885460008F6
:10467000994600089D4600089546000895460008A2
:1046800091460008094B0CE0094B0AE0094B08E091
:10469000094B06E0094B04E0094B02E0094B00E03E
:1046A000094B18460C37BD4680BC70471C4D0008AE
:1046B000304D0008444D0008584D00086C4D00086E
:1046C0007C4D0008904D0008A44D000880B483B0D4
:1046D00000AF0346FB71FB79013B102B4DD801A2C3
:1046E00052F823F0294700082D47000833470008F7
:1046F000374700083D470008414700084747000882
:104700004B4700084F470008554700085947000825
:104710005D47000863470008694700086F470008C5
:104720007347000877470008012327E04FF416730A
:1047300024E0142322E04FF4E1731FE032231DE054
:104740004FF496731AE0322318E0142316E04FF466
:10475000B47313E0142311E006230FE04FF4E17368
:104760000CE040F2523309E04FF4E17306E0142309
:1047700004E0002302E0002300E0642318460C3725
:10478000BD4680BC704700BF80B582B000AF01233A
:10479000FB80FB88122B10DCFB887B717B79184631
:1047A000FFF794FF03461A467B7911461846FFF738
:1047B0002CFFFB880133FB80EBE718460837BD462A
:1047C00080BD80B483B000AF78600B46FB707B681F
:1047D000FA781A740C37BD4680BC704780B483B039
:1047E00000AF78600B46FB70FB78002B01D00422F1
:1047F00000E000227B681A700C37BD4680BC704711
:1048000080B483B000AF78607B681B78042B0CBF4A
:1048100001230023DBB218460C37BD4680BC70472D
:1048200080B582B000AF78600220FFF7CFFE03466C
:1048300018460837BD4680BD80B582B000AF7860AD
:104840000B46FB707B68FA781A747B6800221A7535
:104850007B681B7C142B00F2818001A252F823F0AC
:10486000B5480008BD480008C5480008CD48000804
:10487000D5480008DD480008E5480008ED48000874
:10488000F5480008FD480008054900080D490008E2
:10489000154900081D490008254900082D49000850
:1048A000354900083D490008454900084D490008C0
:1048B000554900087B6802225A7452E07B68002246
:1048C0005A744EE07B6800225A744AE07B680522E5
:1048D0005A7446E07B6806225A7442E07B680722DD
:1048E0005A743EE07B6800225A743AE07B680822E2
:1048F0005A7436E07B6809225A7432E07B680A22D7
:104900005A742EE07B6804225A742AE07B680C22D9
:104910005A7426E07B680B225A7422E07B680322DB
:104920005A741EE07B680E225A741AE07B680F22CC
:104930005A7416E07B6810225A7412E07B680022D9
:104940005A740EE07B6800225A740AE07B681122D8
:104950005A7406E07B680D225A7402E07B680022DC
:104960005A74786800F01CF80837BD4680BD00BF57
:1049700080B582B000AF78600B46FB707B68FA7838
:104980005A747B685B7C1846FFF730FE03469AB288
:104990007B685A827B6801221A750837BD4680BD44
:1049A00080B584B000AF78607B6800221A757B68A0
:1049B0005B7C1846FFF71AFE0346FB81FB8919460C
:1049C0007868FDF7F9FF1037BD4680BD10B5044685
:1049D00000F006F82044407800F0040010BD00000C
:1049E000044B054A1B681B6A002B08BF1346D3F80B
:1049F000EC007047280000208C00002082B001B934
:104A000001A942B14BB113780B601278101C18BF8A
:104A1000012002B070471046FBE76FF00100F8E795
:104A200049B1FF2A85BF8A2303600A704FF0FF3027
:104A300098BF0120704708467047024403469342DE
:104A400000D1704703F8011BF9E7000000000000E7
:104A50000000000001020304060708092020424C60
:104A6000414420454550524F4D2120200000000078
:104A700061626364000000002064636261200000E2
:104A80003132333435360000537465726F772E201F
:104A9000706965636120434F00000000202020778B
:104AA0006572736A6120312E3020202000000000E2
:104AB00040204C65737A656B20426C6163686120AD
:104AC0000000000070617A647A6965726E696B201B
:104AD000323031370000000020205A5245534554EF
:104AE0004F57414E4521202000000000542E2070D9
:104AF000696563613A30302E30206F43000000005A
:104B0000312E20547279622070726163793A2020CC
:104B1000000000002020203E4D414E55414C3C20DD
:104B200020202020000000002020203E4155544F2E
:104B30004D41543C2020202000000000322E506FB8
:104B400064616A6E696B206F70616C7500000000B3
:104B50002020202020203E3E202020202020202019
:104B600000000000322E312E506F64616A2E2070DA
:104B70007261636100000000322E322E506F642E8D
:104B80002070727A6572776100000000322E332E39
:104B9000506F642E206F706F7A6E2E200000000020
:104BA000332E506F64742E2070616C656E696120C5
:104BB00000000000332E312E506F64742E2070726E
:104BC0006163612000000000332E322E506F647448
:104BD0002E2070727A65722E00000000332E332E64
:104BE0004F706F7A6E2E20646D7563680000000050
:104BF000342E20506F6D706120432E4F2E202020C8
:104C000000000000352E20416C61726D20737061D0
:104C1000646B752000000000362E446D756368617A
:104C20007761206D6F633A2000000000372E4869DD
:104C300073746572657A6120432E4F2E0000000068
:104C4000382E20506F6D706120432E572E552E2028
:104C500000000000382E312E4869737465722E20D2
:104C60004357552000000000382E322053657A6FDC
:104C70006E2F747279622020000000002020202016
:104C8000204C45544E4920202020202000000000C8
:104C9000202020205A494D4F5759202020202020E5
:104CA00000000000392E204F70636A652073657222
:104CB0007769732E00000000392E312E5573746110
:104CC000772E20666162722E00000000392E322E8F
:104CD00020506F6D70612043575520200000000068
:104CE00020202020616B7479776E612020202020A5
:104CF000000000002020206E6965616B7479776E7A
:104D00006120202000000000392E332E416C61729A
:104D10006D20706F64616A2E00000000202020303A
:104D2000302E302073656B2E2020202000000000E4
:104D3000542E2075737461773A30302E30206F43D3
:104D400000000000203030206D696E2E20363020AB
:104D500073656B2E0000000074656D703A20303072
:104D60002E302073742E432000000000776C6163A6
:104D70007A203E30302E30206F432000202020202B
:104D8000203D203030203D20202020200000000049
:104D90006D6E69656A206F642030302E30206F435D
:104DA000000000003F3F00004300504F53495800AF
:104DB0002E00002020202020202020202828282805
:104DC00028202020202020202020202020202020DB
:104DD000202020881010101010101010101010102B
:104DE000101010040404040404040404041010103B
:104DF00010101010414141414141010101010101E7
:104E00000101010101010101010101010101101074
:104E100010101010424242424242020202020202BA
:104E20000202020202020202020202020202101046
:104E30001010200000000000000000000000000032
:104E40000000000000000000000000000000000062
:104E50000000000000000000000000000000000052
:104E60000000000000000000000000000000000042
:104E70000000000000000000000000000000000032
:104E80000000000000000000000000000000000022
:104E90000000000000000000000000000000000012
:104EA0000000000000000000000000000000000002
:034EB000000000FF
:104EB400785634120002002000000000E4020020B2
:104EC40001000000010000000100000001000000DA
:104ED400BC04002000127A002C0000200000000016
:104EE40000000000000000000000000000000000BE
:104EF40000000000000000000000000000000000AE
:104F0400000000000000000000000000000000009D
:104F1400000000000000000000000000000000008D
:104F2400000000000000000000000000000000007D
:104F3400000000000000000000000000430000002A
:104F4400000000000000000000000000000000005D
:104F5400000000000000000000000000430000000A
:104F6400000000000000000000000000000000003D
:104F740000000000000000000000000043000000EA
:104F8400000000000000000000000000000000001D
:104F940000000000000000000000000043000000CA
:104FA40000000000000000000000000000000000FD
:104FB40000000000000000000000000043000000AA
:104FC40000000000000000000000000000000000DD
:104FD400000000000000000000000000430000008A
:104FE40000000000000000000000000000000000BD
:104FF400000000000000000000000000430000006A
:10500400000000000000000000000000000000009C
:10501400000000000000000000000000214A000819
:10502400FD49000800000000B24D0008B04D000822
:10503400B14D0008B14D0008B14D0008B14D000854
:10504400B14D0008B14D0008B14D0008B14D000844
:10505400B14D0008FFFFFFFFFFFFFFFFFFFFFFFF52
:10506400FFFF0000010041534349490000000000D4
:10507400000000000000000000000000000000002C
:1050840000000000000041534349490000000000B3
:10509400000000000000000000000000000000000C
:0C50A4000000000000000000325476986C
:040000050800019955
:00000001FF
